{
  "contractName": "AppNFT",
  "abi": [
    {
      "inputs": [],
      "stateMutability": "nonpayable",
      "type": "constructor"
    },
    {
      "anonymous": false,
      "inputs": [
        {
          "indexed": true,
          "internalType": "address",
          "name": "owner",
          "type": "address"
        },
        {
          "indexed": true,
          "internalType": "address",
          "name": "approved",
          "type": "address"
        },
        {
          "indexed": true,
          "internalType": "uint256",
          "name": "tokenId",
          "type": "uint256"
        }
      ],
      "name": "Approval",
      "type": "event"
    },
    {
      "anonymous": false,
      "inputs": [
        {
          "indexed": true,
          "internalType": "address",
          "name": "owner",
          "type": "address"
        },
        {
          "indexed": true,
          "internalType": "address",
          "name": "operator",
          "type": "address"
        },
        {
          "indexed": false,
          "internalType": "bool",
          "name": "approved",
          "type": "bool"
        }
      ],
      "name": "ApprovalForAll",
      "type": "event"
    },
    {
      "anonymous": false,
      "inputs": [
        {
          "indexed": true,
          "internalType": "address",
          "name": "from",
          "type": "address"
        },
        {
          "indexed": true,
          "internalType": "address",
          "name": "to",
          "type": "address"
        },
        {
          "indexed": true,
          "internalType": "uint256",
          "name": "tokenId",
          "type": "uint256"
        }
      ],
      "name": "Transfer",
      "type": "event"
    },
    {
      "inputs": [
        {
          "internalType": "uint256",
          "name": "",
          "type": "uint256"
        }
      ],
      "name": "_appNameMap",
      "outputs": [
        {
          "internalType": "string",
          "name": "",
          "type": "string"
        }
      ],
      "stateMutability": "view",
      "type": "function",
      "constant": true
    },
    {
      "inputs": [
        {
          "internalType": "address",
          "name": "to",
          "type": "address"
        },
        {
          "internalType": "uint256",
          "name": "tokenId",
          "type": "uint256"
        }
      ],
      "name": "approve",
      "outputs": [],
      "stateMutability": "nonpayable",
      "type": "function"
    },
    {
      "inputs": [
        {
          "internalType": "address",
          "name": "owner",
          "type": "address"
        }
      ],
      "name": "balanceOf",
      "outputs": [
        {
          "internalType": "uint256",
          "name": "",
          "type": "uint256"
        }
      ],
      "stateMutability": "view",
      "type": "function",
      "constant": true
    },
    {
      "inputs": [
        {
          "internalType": "uint256",
          "name": "tokenId",
          "type": "uint256"
        }
      ],
      "name": "getApproved",
      "outputs": [
        {
          "internalType": "address",
          "name": "",
          "type": "address"
        }
      ],
      "stateMutability": "view",
      "type": "function",
      "constant": true
    },
    {
      "inputs": [
        {
          "internalType": "address",
          "name": "owner",
          "type": "address"
        },
        {
          "internalType": "address",
          "name": "operator",
          "type": "address"
        }
      ],
      "name": "isApprovedForAll",
      "outputs": [
        {
          "internalType": "bool",
          "name": "",
          "type": "bool"
        }
      ],
      "stateMutability": "view",
      "type": "function",
      "constant": true
    },
    {
      "inputs": [],
      "name": "name",
      "outputs": [
        {
          "internalType": "string",
          "name": "",
          "type": "string"
        }
      ],
      "stateMutability": "view",
      "type": "function",
      "constant": true
    },
    {
      "inputs": [
        {
          "internalType": "uint256",
          "name": "tokenId",
          "type": "uint256"
        }
      ],
      "name": "ownerOf",
      "outputs": [
        {
          "internalType": "address",
          "name": "",
          "type": "address"
        }
      ],
      "stateMutability": "view",
      "type": "function",
      "constant": true
    },
    {
      "inputs": [
        {
          "internalType": "address",
          "name": "from",
          "type": "address"
        },
        {
          "internalType": "address",
          "name": "to",
          "type": "address"
        },
        {
          "internalType": "uint256",
          "name": "tokenId",
          "type": "uint256"
        }
      ],
      "name": "safeTransferFrom",
      "outputs": [],
      "stateMutability": "nonpayable",
      "type": "function"
    },
    {
      "inputs": [
        {
          "internalType": "address",
          "name": "from",
          "type": "address"
        },
        {
          "internalType": "address",
          "name": "to",
          "type": "address"
        },
        {
          "internalType": "uint256",
          "name": "tokenId",
          "type": "uint256"
        },
        {
          "internalType": "bytes",
          "name": "_data",
          "type": "bytes"
        }
      ],
      "name": "safeTransferFrom",
      "outputs": [],
      "stateMutability": "nonpayable",
      "type": "function"
    },
    {
      "inputs": [
        {
          "internalType": "address",
          "name": "operator",
          "type": "address"
        },
        {
          "internalType": "bool",
          "name": "approved",
          "type": "bool"
        }
      ],
      "name": "setApprovalForAll",
      "outputs": [],
      "stateMutability": "nonpayable",
      "type": "function"
    },
    {
      "inputs": [
        {
          "internalType": "bytes4",
          "name": "interfaceId",
          "type": "bytes4"
        }
      ],
      "name": "supportsInterface",
      "outputs": [
        {
          "internalType": "bool",
          "name": "",
          "type": "bool"
        }
      ],
      "stateMutability": "view",
      "type": "function",
      "constant": true
    },
    {
      "inputs": [],
      "name": "symbol",
      "outputs": [
        {
          "internalType": "string",
          "name": "",
          "type": "string"
        }
      ],
      "stateMutability": "view",
      "type": "function",
      "constant": true
    },
    {
      "inputs": [
        {
          "internalType": "uint256",
          "name": "tokenId",
          "type": "uint256"
        }
      ],
      "name": "tokenURI",
      "outputs": [
        {
          "internalType": "string",
          "name": "",
          "type": "string"
        }
      ],
      "stateMutability": "view",
      "type": "function",
      "constant": true
    },
    {
      "inputs": [
        {
          "internalType": "address",
          "name": "from",
          "type": "address"
        },
        {
          "internalType": "address",
          "name": "to",
          "type": "address"
        },
        {
          "internalType": "uint256",
          "name": "tokenId",
          "type": "uint256"
        }
      ],
      "name": "transferFrom",
      "outputs": [],
      "stateMutability": "nonpayable",
      "type": "function"
    },
    {
      "inputs": [
        {
          "internalType": "address",
          "name": "sender",
          "type": "address"
        },
        {
          "internalType": "string",
          "name": "tokenURI",
          "type": "string"
        },
        {
          "internalType": "string",
          "name": "name",
          "type": "string"
        }
      ],
      "name": "add",
      "outputs": [
        {
          "internalType": "uint256",
          "name": "",
          "type": "uint256"
        }
      ],
      "stateMutability": "nonpayable",
      "type": "function"
    },
    {
      "inputs": [],
      "name": "currentCount",
      "outputs": [
        {
          "internalType": "uint256",
          "name": "",
          "type": "uint256"
        }
      ],
      "stateMutability": "view",
      "type": "function",
      "constant": true
    },
    {
      "inputs": [
        {
          "internalType": "uint256",
          "name": "tokenId",
          "type": "uint256"
        }
      ],
      "name": "getName",
      "outputs": [
        {
          "internalType": "string",
          "name": "",
          "type": "string"
        }
      ],
      "stateMutability": "view",
      "type": "function",
      "constant": true
    }
  ],
  "bytecode": "0x60806040523480156200001157600080fd5b506040518060400160405280600981526020017f426974466f7265737400000000000000000000000000000000000000000000008152506040518060400160405280600381526020017f4246540000000000000000000000000000000000000000000000000000000000815250816000908051906020019062000096929190620000b8565b508060019080519060200190620000af929190620000b8565b505050620001cd565b828054620000c69062000168565b90600052602060002090601f016020900481019282620000ea576000855562000136565b82601f106200010557805160ff191683800117855562000136565b8280016001018555821562000136579182015b828111156200013557825182559160200191906001019062000118565b5b50905062000145919062000149565b5090565b5b80821115620001645760008160009055506001016200014a565b5090565b600060028204905060018216806200018157607f821691505b602082108114156200019857620001976200019e565b5b50919050565b7f4e487b7100000000000000000000000000000000000000000000000000000000600052602260045260246000fd5b61328b80620001dd6000396000f3fe608060405234801561001057600080fd5b506004361061010b5760003560e01c80636b8ff574116100a2578063a22cb46511610071578063a22cb465146102f0578063b88d4fde1461030c578063c732d20114610328578063c87b56dd14610346578063e985e9c5146103765761010b565b80636b8ff574146102425780636e3eb43f1461027257806370a08231146102a257806395d89b41146102d25761010b565b806323b872dd116100de57806323b872dd146101aa57806342842e0e146101c657806346bc7fd9146101e25780636352211e146102125761010b565b806301ffc9a71461011057806306fdde0314610140578063081812fc1461015e578063095ea7b31461018e575b600080fd5b61012a60048036038101906101259190612165565b6103a6565b604051610137919061261d565b60405180910390f35b610148610488565b6040516101559190612638565b60405180910390f35b61017860048036038101906101739190612208565b61051a565b60405161018591906125b6565b60405180910390f35b6101a860048036038101906101a39190612125565b61059f565b005b6101c460048036038101906101bf9190611f84565b6106b7565b005b6101e060048036038101906101db9190611f84565b610717565b005b6101fc60048036038101906101f7919061209a565b610737565b604051610209919061289a565b60405180910390f35b61022c60048036038101906102279190612208565b610995565b60405161023991906125b6565b60405180910390f35b61025c60048036038101906102579190612208565b610a47565b6040516102699190612638565b60405180910390f35b61028c60048036038101906102879190612208565b610aec565b6040516102999190612638565b60405180910390f35b6102bc60048036038101906102b79190611f17565b610b8c565b6040516102c9919061289a565b60405180910390f35b6102da610c44565b6040516102e79190612638565b60405180910390f35b61030a6004803603810190610305919061205a565b610cd6565b005b61032660048036038101906103219190611fd7565b610cec565b005b610330610d4e565b60405161033d919061289a565b60405180910390f35b610360600480360381019061035b9190612208565b610d5f565b60405161036d9190612638565b60405180910390f35b610390600480360381019061038b9190611f44565b610eb1565b60405161039d919061261d565b60405180910390f35b60007f80ac58cd000000000000000000000000000000000000000000000000000000007bffffffffffffffffffffffffffffffffffffffffffffffffffffffff1916827bffffffffffffffffffffffffffffffffffffffffffffffffffffffff1916148061047157507f5b5e139f000000000000000000000000000000000000000000000000000000007bffffffffffffffffffffffffffffffffffffffffffffffffffffffff1916827bffffffffffffffffffffffffffffffffffffffffffffffffffffffff1916145b80610481575061048082610f45565b5b9050919050565b60606000805461049790612af0565b80601f01602080910402602001604051908101604052809291908181526020018280546104c390612af0565b80156105105780601f106104e557610100808354040283529160200191610510565b820191906000526020600020905b8154815290600101906020018083116104f357829003601f168201915b5050505050905090565b600061052582610faf565b610564576040517f08c379a000000000000000000000000000000000000000000000000000000000815260040161055b906127da565b60405180910390fd5b6004600083815260200190815260200160002060009054906101000a900473ffffffffffffffffffffffffffffffffffffffff169050919050565b60006105aa82610995565b90508073ffffffffffffffffffffffffffffffffffffffff168373ffffffffffffffffffffffffffffffffffffffff16141561061b576040517f08c379a00000000000000000000000000000000000000000000000000000000081526004016106129061281a565b60405180910390fd5b8073ffffffffffffffffffffffffffffffffffffffff1661063a61101b565b73ffffffffffffffffffffffffffffffffffffffff16148061066957506106688161066361101b565b610eb1565b5b6106a8576040517f08c379a000000000000000000000000000000000000000000000000000000000815260040161069f9061271a565b60405180910390fd5b6106b28383611023565b505050565b6106c86106c261101b565b826110dc565b610707576040517f08c379a00000000000000000000000000000000000000000000000000000000081526004016106fe9061285a565b60405180910390fd5b6107128383836111ba565b505050565b61073283838360405180602001604052806000815250610cec565b505050565b6000806107446007611421565b905060008060005b838110156108bf576107f960086000838152602001908152602001600020805461077590612af0565b80601f01602080910402602001604051908101604052809291908181526020018280546107a190612af0565b80156107ee5780601f106107c3576101008083540402835291602001916107ee565b820191906000526020600020905b8154815290600101906020018083116107d157829003601f168201915b50505050508761142f565b1561080757600192506108bf565b61089e3073ffffffffffffffffffffffffffffffffffffffff1663c87b56dd836040518263ffffffff1660e01b8152600401610843919061289a565b60006040518083038186803b15801561085b57600080fd5b505afa15801561086f573d6000803e3d6000fd5b505050506040513d6000823e3d601f19601f8201168201806040525081019061089891906121bf565b8861142f565b156108ac57600191506108bf565b80806108b790612b53565b91505061074c565b508115610901576040517f08c379a00000000000000000000000000000000000000000000000000000000081526004016108f89061287a565b60405180910390fd5b8015610942576040517f08c379a00000000000000000000000000000000000000000000000000000000081526004016109399061283a565b60405180910390fd5b61094c87846114ab565b6109568387611685565b8460086000858152602001908152602001600020908051906020019061097d929190611cbb565b5061098860076116f9565b8293505050509392505050565b6000806002600084815260200190815260200160002060009054906101000a900473ffffffffffffffffffffffffffffffffffffffff169050600073ffffffffffffffffffffffffffffffffffffffff168173ffffffffffffffffffffffffffffffffffffffff161415610a3e576040517f08c379a0000000000000000000000000000000000000000000000000000000008152600401610a359061275a565b60405180910390fd5b80915050919050565b6060600860008381526020019081526020016000208054610a6790612af0565b80601f0160208091040260200160405190810160405280929190818152602001828054610a9390612af0565b8015610ae05780601f10610ab557610100808354040283529160200191610ae0565b820191906000526020600020905b815481529060010190602001808311610ac357829003601f168201915b50505050509050919050565b60086020528060005260406000206000915090508054610b0b90612af0565b80601f0160208091040260200160405190810160405280929190818152602001828054610b3790612af0565b8015610b845780601f10610b5957610100808354040283529160200191610b84565b820191906000526020600020905b815481529060010190602001808311610b6757829003601f168201915b505050505081565b60008073ffffffffffffffffffffffffffffffffffffffff168273ffffffffffffffffffffffffffffffffffffffff161415610bfd576040517f08c379a0000000000000000000000000000000000000000000000000000000008152600401610bf49061273a565b60405180910390fd5b600360008373ffffffffffffffffffffffffffffffffffffffff1673ffffffffffffffffffffffffffffffffffffffff168152602001908152602001600020549050919050565b606060018054610c5390612af0565b80601f0160208091040260200160405190810160405280929190818152602001828054610c7f90612af0565b8015610ccc5780601f10610ca157610100808354040283529160200191610ccc565b820191906000526020600020905b815481529060010190602001808311610caf57829003601f168201915b5050505050905090565b610ce8610ce161101b565b838361170f565b5050565b610cfd610cf761101b565b836110dc565b610d3c576040517f08c379a0000000000000000000000000000000000000000000000000000000008152600401610d339061285a565b60405180910390fd5b610d488484848461187c565b50505050565b6000610d5a6007611421565b905090565b6060610d6a82610faf565b610da9576040517f08c379a0000000000000000000000000000000000000000000000000000000008152600401610da0906127ba565b60405180910390fd5b6000600660008481526020019081526020016000208054610dc990612af0565b80601f0160208091040260200160405190810160405280929190818152602001828054610df590612af0565b8015610e425780601f10610e1757610100808354040283529160200191610e42565b820191906000526020600020905b815481529060010190602001808311610e2557829003601f168201915b505050505090506000610e536118d8565b9050600081511415610e69578192505050610eac565b600082511115610e9e578082604051602001610e86929190612592565b60405160208183030381529060405292505050610eac565b610ea7846118ef565b925050505b919050565b6000600560008473ffffffffffffffffffffffffffffffffffffffff1673ffffffffffffffffffffffffffffffffffffffff16815260200190815260200160002060008373ffffffffffffffffffffffffffffffffffffffff1673ffffffffffffffffffffffffffffffffffffffff16815260200190815260200160002060009054906101000a900460ff16905092915050565b60007f01ffc9a7000000000000000000000000000000000000000000000000000000007bffffffffffffffffffffffffffffffffffffffffffffffffffffffff1916827bffffffffffffffffffffffffffffffffffffffffffffffffffffffff1916149050919050565b60008073ffffffffffffffffffffffffffffffffffffffff166002600084815260200190815260200160002060009054906101000a900473ffffffffffffffffffffffffffffffffffffffff1673ffffffffffffffffffffffffffffffffffffffff1614159050919050565b600033905090565b816004600083815260200190815260200160002060006101000a81548173ffffffffffffffffffffffffffffffffffffffff021916908373ffffffffffffffffffffffffffffffffffffffff160217905550808273ffffffffffffffffffffffffffffffffffffffff1661109683610995565b73ffffffffffffffffffffffffffffffffffffffff167f8c5be1e5ebec7d5bd14f71427d1e84f3dd0314c0f7b2291e5b200ac8c7c3b92560405160405180910390a45050565b60006110e782610faf565b611126576040517f08c379a000000000000000000000000000000000000000000000000000000000815260040161111d906126fa565b60405180910390fd5b600061113183610995565b90508073ffffffffffffffffffffffffffffffffffffffff168473ffffffffffffffffffffffffffffffffffffffff16148061117357506111728185610eb1565b5b806111b157508373ffffffffffffffffffffffffffffffffffffffff166111998461051a565b73ffffffffffffffffffffffffffffffffffffffff16145b91505092915050565b8273ffffffffffffffffffffffffffffffffffffffff166111da82610995565b73ffffffffffffffffffffffffffffffffffffffff1614611230576040517f08c379a00000000000000000000000000000000000000000000000000000000081526004016112279061267a565b60405180910390fd5b600073ffffffffffffffffffffffffffffffffffffffff168273ffffffffffffffffffffffffffffffffffffffff1614156112a0576040517f08c379a0000000000000000000000000000000000000000000000000000000008152600401611297906126ba565b60405180910390fd5b6112ab838383611996565b6112b6600082611023565b6001600360008573ffffffffffffffffffffffffffffffffffffffff1673ffffffffffffffffffffffffffffffffffffffff16815260200190815260200160002060008282546113069190612a06565b925050819055506001600360008473ffffffffffffffffffffffffffffffffffffffff1673ffffffffffffffffffffffffffffffffffffffff168152602001908152602001600020600082825461135d919061297f565b92505081905550816002600083815260200190815260200160002060006101000a81548173ffffffffffffffffffffffffffffffffffffffff021916908373ffffffffffffffffffffffffffffffffffffffff160217905550808273ffffffffffffffffffffffffffffffffffffffff168473ffffffffffffffffffffffffffffffffffffffff167fddf252ad1be2c89b69c2b068fc378daa952ba7f163c4a11628f55a4df523b3ef60405160405180910390a461141c83838361199b565b505050565b600081600001549050919050565b6000815183511461144357600090506114a5565b81604051602001611454919061257b565b604051602081830303815290604052805190602001208360405160200161147b919061257b565b6040516020818303038152906040528051906020012014156114a057600190506114a5565b600090505b92915050565b600073ffffffffffffffffffffffffffffffffffffffff168273ffffffffffffffffffffffffffffffffffffffff16141561151b576040517f08c379a00000000000000000000000000000000000000000000000000000000081526004016115129061279a565b60405180910390fd5b61152481610faf565b15611564576040517f08c379a000000000000000000000000000000000000000000000000000000000815260040161155b9061269a565b60405180910390fd5b61157060008383611996565b6001600360008473ffffffffffffffffffffffffffffffffffffffff1673ffffffffffffffffffffffffffffffffffffffff16815260200190815260200160002060008282546115c0919061297f565b92505081905550816002600083815260200190815260200160002060006101000a81548173ffffffffffffffffffffffffffffffffffffffff021916908373ffffffffffffffffffffffffffffffffffffffff160217905550808273ffffffffffffffffffffffffffffffffffffffff16600073ffffffffffffffffffffffffffffffffffffffff167fddf252ad1be2c89b69c2b068fc378daa952ba7f163c4a11628f55a4df523b3ef60405160405180910390a46116816000838361199b565b5050565b61168e82610faf565b6116cd576040517f08c379a00000000000000000000000000000000000000000000000000000000081526004016116c49061277a565b60405180910390fd5b806006600084815260200190815260200160002090805190602001906116f4929190611cbb565b505050565b6001816000016000828254019250508190555050565b8173ffffffffffffffffffffffffffffffffffffffff168373ffffffffffffffffffffffffffffffffffffffff16141561177e576040517f08c379a0000000000000000000000000000000000000000000000000000000008152600401611775906126da565b60405180910390fd5b80600560008573ffffffffffffffffffffffffffffffffffffffff1673ffffffffffffffffffffffffffffffffffffffff16815260200190815260200160002060008473ffffffffffffffffffffffffffffffffffffffff1673ffffffffffffffffffffffffffffffffffffffff16815260200190815260200160002060006101000a81548160ff0219169083151502179055508173ffffffffffffffffffffffffffffffffffffffff168373ffffffffffffffffffffffffffffffffffffffff167f17307eab39ab6107e8899845ad3d59bd9653f200f220920489ca2b5937696c318360405161186f919061261d565b60405180910390a3505050565b6118878484846111ba565b611893848484846119a0565b6118d2576040517f08c379a00000000000000000000000000000000000000000000000000000000081526004016118c99061265a565b60405180910390fd5b50505050565b606060405180602001604052806000815250905090565b60606118fa82610faf565b611939576040517f08c379a0000000000000000000000000000000000000000000000000000000008152600401611930906127fa565b60405180910390fd5b60006119436118d8565b90506000815111611963576040518060200160405280600081525061198e565b8061196d84611b37565b60405160200161197e929190612592565b6040516020818303038152906040525b915050919050565b505050565b505050565b60006119c18473ffffffffffffffffffffffffffffffffffffffff16611c98565b15611b2a578373ffffffffffffffffffffffffffffffffffffffff1663150b7a026119ea61101b565b8786866040518563ffffffff1660e01b8152600401611a0c94939291906125d1565b602060405180830381600087803b158015611a2657600080fd5b505af1925050508015611a5757506040513d601f19601f82011682018060405250810190611a549190612192565b60015b611ada573d8060008114611a87576040519150601f19603f3d011682016040523d82523d6000602084013e611a8c565b606091505b50600081511415611ad2576040517f08c379a0000000000000000000000000000000000000000000000000000000008152600401611ac99061265a565b60405180910390fd5b805181602001fd5b63150b7a0260e01b7bffffffffffffffffffffffffffffffffffffffffffffffffffffffff1916817bffffffffffffffffffffffffffffffffffffffffffffffffffffffff191614915050611b2f565b600190505b949350505050565b60606000821415611b7f576040518060400160405280600181526020017f30000000000000000000000000000000000000000000000000000000000000008152509050611c93565b600082905060005b60008214611bb1578080611b9a90612b53565b915050600a82611baa91906129d5565b9150611b87565b60008167ffffffffffffffff811115611bcd57611bcc612c89565b5b6040519080825280601f01601f191660200182016040528015611bff5781602001600182028036833780820191505090505b5090505b60008514611c8c57600182611c189190612a06565b9150600a85611c279190612b9c565b6030611c33919061297f565b60f81b818381518110611c4957611c48612c5a565b5b60200101907effffffffffffffffffffffffffffffffffffffffffffffffffffffffffffff1916908160001a905350600a85611c8591906129d5565b9450611c03565b8093505050505b919050565b6000808273ffffffffffffffffffffffffffffffffffffffff163b119050919050565b828054611cc790612af0565b90600052602060002090601f016020900481019282611ce95760008555611d30565b82601f10611d0257805160ff1916838001178555611d30565b82800160010185558215611d30579182015b82811115611d2f578251825591602001919060010190611d14565b5b509050611d3d9190611d41565b5090565b5b80821115611d5a576000816000905550600101611d42565b5090565b6000611d71611d6c846128da565b6128b5565b905082815260208101848484011115611d8d57611d8c612cbd565b5b611d98848285612aae565b509392505050565b6000611db3611dae8461290b565b6128b5565b905082815260208101848484011115611dcf57611dce612cbd565b5b611dda848285612aae565b509392505050565b6000611df5611df08461290b565b6128b5565b905082815260208101848484011115611e1157611e10612cbd565b5b611e1c848285612abd565b509392505050565b600081359050611e33816131f9565b92915050565b600081359050611e4881613210565b92915050565b600081359050611e5d81613227565b92915050565b600081519050611e7281613227565b92915050565b600082601f830112611e8d57611e8c612cb8565b5b8135611e9d848260208601611d5e565b91505092915050565b600082601f830112611ebb57611eba612cb8565b5b8135611ecb848260208601611da0565b91505092915050565b600082601f830112611ee957611ee8612cb8565b5b8151611ef9848260208601611de2565b91505092915050565b600081359050611f118161323e565b92915050565b600060208284031215611f2d57611f2c612cc7565b5b6000611f3b84828501611e24565b91505092915050565b60008060408385031215611f5b57611f5a612cc7565b5b6000611f6985828601611e24565b9250506020611f7a85828601611e24565b9150509250929050565b600080600060608486031215611f9d57611f9c612cc7565b5b6000611fab86828701611e24565b9350506020611fbc86828701611e24565b9250506040611fcd86828701611f02565b9150509250925092565b60008060008060808587031215611ff157611ff0612cc7565b5b6000611fff87828801611e24565b945050602061201087828801611e24565b935050604061202187828801611f02565b925050606085013567ffffffffffffffff81111561204257612041612cc2565b5b61204e87828801611e78565b91505092959194509250565b6000806040838503121561207157612070612cc7565b5b600061207f85828601611e24565b925050602061209085828601611e39565b9150509250929050565b6000806000606084860312156120b3576120b2612cc7565b5b60006120c186828701611e24565b935050602084013567ffffffffffffffff8111156120e2576120e1612cc2565b5b6120ee86828701611ea6565b925050604084013567ffffffffffffffff81111561210f5761210e612cc2565b5b61211b86828701611ea6565b9150509250925092565b6000806040838503121561213c5761213b612cc7565b5b600061214a85828601611e24565b925050602061215b85828601611f02565b9150509250929050565b60006020828403121561217b5761217a612cc7565b5b600061218984828501611e4e565b91505092915050565b6000602082840312156121a8576121a7612cc7565b5b60006121b684828501611e63565b91505092915050565b6000602082840312156121d5576121d4612cc7565b5b600082015167ffffffffffffffff8111156121f3576121f2612cc2565b5b6121ff84828501611ed4565b91505092915050565b60006020828403121561221e5761221d612cc7565b5b600061222c84828501611f02565b91505092915050565b61223e81612a3a565b82525050565b61224d81612a4c565b82525050565b600061225e8261293c565b6122688185612952565b9350612278818560208601612abd565b61228181612ccc565b840191505092915050565b600061229782612947565b6122a18185612963565b93506122b1818560208601612abd565b6122ba81612ccc565b840191505092915050565b60006122d082612947565b6122da8185612974565b93506122ea818560208601612abd565b80840191505092915050565b6000612303603283612963565b915061230e82612cdd565b604082019050919050565b6000612326602583612963565b915061233182612d2c565b604082019050919050565b6000612349601c83612963565b915061235482612d7b565b602082019050919050565b600061236c602483612963565b915061237782612da4565b604082019050919050565b600061238f601983612963565b915061239a82612df3565b602082019050919050565b60006123b2602c83612963565b91506123bd82612e1c565b604082019050919050565b60006123d5603883612963565b91506123e082612e6b565b604082019050919050565b60006123f8602a83612963565b915061240382612eba565b604082019050919050565b600061241b602983612963565b915061242682612f09565b604082019050919050565b600061243e602e83612963565b915061244982612f58565b604082019050919050565b6000612461602083612963565b915061246c82612fa7565b602082019050919050565b6000612484603183612963565b915061248f82612fd0565b604082019050919050565b60006124a7602c83612963565b91506124b28261301f565b604082019050919050565b60006124ca602f83612963565b91506124d58261306e565b604082019050919050565b60006124ed602183612963565b91506124f8826130bd565b604082019050919050565b6000612510602b83612963565b915061251b8261310c565b604082019050919050565b6000612533603183612963565b915061253e8261315b565b604082019050919050565b6000612556602783612963565b9150612561826131aa565b604082019050919050565b61257581612aa4565b82525050565b600061258782846122c5565b915081905092915050565b600061259e82856122c5565b91506125aa82846122c5565b91508190509392505050565b60006020820190506125cb6000830184612235565b92915050565b60006080820190506125e66000830187612235565b6125f36020830186612235565b612600604083018561256c565b81810360608301526126128184612253565b905095945050505050565b60006020820190506126326000830184612244565b92915050565b60006020820190508181036000830152612652818461228c565b905092915050565b60006020820190508181036000830152612673816122f6565b9050919050565b6000602082019050818103600083015261269381612319565b9050919050565b600060208201905081810360008301526126b38161233c565b9050919050565b600060208201905081810360008301526126d38161235f565b9050919050565b600060208201905081810360008301526126f381612382565b9050919050565b60006020820190508181036000830152612713816123a5565b9050919050565b60006020820190508181036000830152612733816123c8565b9050919050565b60006020820190508181036000830152612753816123eb565b9050919050565b600060208201905081810360008301526127738161240e565b9050919050565b6000602082019050818103600083015261279381612431565b9050919050565b600060208201905081810360008301526127b381612454565b9050919050565b600060208201905081810360008301526127d381612477565b9050919050565b600060208201905081810360008301526127f38161249a565b9050919050565b60006020820190508181036000830152612813816124bd565b9050919050565b60006020820190508181036000830152612833816124e0565b9050919050565b6000602082019050818103600083015261285381612503565b9050919050565b6000602082019050818103600083015261287381612526565b9050919050565b6000602082019050818103600083015261289381612549565b9050919050565b60006020820190506128af600083018461256c565b92915050565b60006128bf6128d0565b90506128cb8282612b22565b919050565b6000604051905090565b600067ffffffffffffffff8211156128f5576128f4612c89565b5b6128fe82612ccc565b9050602081019050919050565b600067ffffffffffffffff82111561292657612925612c89565b5b61292f82612ccc565b9050602081019050919050565b600081519050919050565b600081519050919050565b600082825260208201905092915050565b600082825260208201905092915050565b600081905092915050565b600061298a82612aa4565b915061299583612aa4565b9250827fffffffffffffffffffffffffffffffffffffffffffffffffffffffffffffffff038211156129ca576129c9612bcd565b5b828201905092915050565b60006129e082612aa4565b91506129eb83612aa4565b9250826129fb576129fa612bfc565b5b828204905092915050565b6000612a1182612aa4565b9150612a1c83612aa4565b925082821015612a2f57612a2e612bcd565b5b828203905092915050565b6000612a4582612a84565b9050919050565b60008115159050919050565b60007fffffffff0000000000000000000000000000000000000000000000000000000082169050919050565b600073ffffffffffffffffffffffffffffffffffffffff82169050919050565b6000819050919050565b82818337600083830152505050565b60005b83811015612adb578082015181840152602081019050612ac0565b83811115612aea576000848401525b50505050565b60006002820490506001821680612b0857607f821691505b60208210811415612b1c57612b1b612c2b565b5b50919050565b612b2b82612ccc565b810181811067ffffffffffffffff82111715612b4a57612b49612c89565b5b80604052505050565b6000612b5e82612aa4565b91507fffffffffffffffffffffffffffffffffffffffffffffffffffffffffffffffff821415612b9157612b90612bcd565b5b600182019050919050565b6000612ba782612aa4565b9150612bb283612aa4565b925082612bc257612bc1612bfc565b5b828206905092915050565b7f4e487b7100000000000000000000000000000000000000000000000000000000600052601160045260246000fd5b7f4e487b7100000000000000000000000000000000000000000000000000000000600052601260045260246000fd5b7f4e487b7100000000000000000000000000000000000000000000000000000000600052602260045260246000fd5b7f4e487b7100000000000000000000000000000000000000000000000000000000600052603260045260246000fd5b7f4e487b7100000000000000000000000000000000000000000000000000000000600052604160045260246000fd5b600080fd5b600080fd5b600080fd5b600080fd5b6000601f19601f8301169050919050565b7f4552433732313a207472616e7366657220746f206e6f6e20455243373231526560008201527f63656976657220696d706c656d656e7465720000000000000000000000000000602082015250565b7f4552433732313a207472616e736665722066726f6d20696e636f72726563742060008201527f6f776e6572000000000000000000000000000000000000000000000000000000602082015250565b7f4552433732313a20746f6b656e20616c7265616479206d696e74656400000000600082015250565b7f4552433732313a207472616e7366657220746f20746865207a65726f2061646460008201527f7265737300000000000000000000000000000000000000000000000000000000602082015250565b7f4552433732313a20617070726f766520746f2063616c6c657200000000000000600082015250565b7f4552433732313a206f70657261746f7220717565727920666f72206e6f6e657860008201527f697374656e7420746f6b656e0000000000000000000000000000000000000000602082015250565b7f4552433732313a20617070726f76652063616c6c6572206973206e6f74206f7760008201527f6e6572206e6f7220617070726f76656420666f7220616c6c0000000000000000602082015250565b7f4552433732313a2062616c616e636520717565727920666f7220746865207a6560008201527f726f206164647265737300000000000000000000000000000000000000000000602082015250565b7f4552433732313a206f776e657220717565727920666f72206e6f6e657869737460008201527f656e7420746f6b656e0000000000000000000000000000000000000000000000602082015250565b7f45524337323155524953746f726167653a2055524920736574206f66206e6f6e60008201527f6578697374656e7420746f6b656e000000000000000000000000000000000000602082015250565b7f4552433732313a206d696e7420746f20746865207a65726f2061646472657373600082015250565b7f45524337323155524953746f726167653a2055524920717565727920666f722060008201527f6e6f6e6578697374656e7420746f6b656e000000000000000000000000000000602082015250565b7f4552433732313a20617070726f76656420717565727920666f72206e6f6e657860008201527f697374656e7420746f6b656e0000000000000000000000000000000000000000602082015250565b7f4552433732314d657461646174613a2055524920717565727920666f72206e6f60008201527f6e6578697374656e7420746f6b656e0000000000000000000000000000000000602082015250565b7f4552433732313a20617070726f76616c20746f2063757272656e74206f776e6560008201527f7200000000000000000000000000000000000000000000000000000000000000602082015250565b7f546865726520697320616c7265616479206120617070206f662074686520736160008201527f6d6520746f6b656e555249000000000000000000000000000000000000000000602082015250565b7f4552433732313a207472616e736665722063616c6c6572206973206e6f74206f60008201527f776e6572206e6f7220617070726f766564000000000000000000000000000000602082015250565b7f546865726520697320616c7265616479206120617070206f662074686520736160008201527f6d65206e616d6500000000000000000000000000000000000000000000000000602082015250565b61320281612a3a565b811461320d57600080fd5b50565b61321981612a4c565b811461322457600080fd5b50565b61323081612a58565b811461323b57600080fd5b50565b61324781612aa4565b811461325257600080fd5b5056fea2646970667358221220849f1a0fe14a06250e9a5d32fa4b707b73a689d1f3f8bd58a5bb11c056edefdd64736f6c63430008050033",
  "immutableReferences": {},
  "source": "// contracts/AppNTF.sol\n// SPDX-License-Identifier: MIT\npragma solidity ^0.8.4;\n\nimport \"@openzeppelin/contracts/token/ERC721/extensions/ERC721URIStorage.sol\";\nimport \"@openzeppelin/contracts/utils/Counters.sol\";\n\ncontract AppNFT is ERC721URIStorage {\n    using Counters for Counters.Counter;\n    Counters.Counter private _tokenIds;\n\n    mapping(uint256 => string) public _appNameMap;\n\n    constructor() ERC721(\"BitForest\", \"BFT\") {}\n\n    function add(address sender, string memory tokenURI, string memory name) public returns (uint256) {\n        uint256 newItemId = _tokenIds.current();\n\n        bool hasSameName = false;\n        bool hasSameTokenURI = false;\n        for (uint i = 0; i < newItemId; i++) {\n            if (compareString(_appNameMap[i], name)) {\n                hasSameName = true;\n                break;\n            }\n            if (compareString(this.tokenURI(i), tokenURI)) {\n                hasSameTokenURI = true;\n                break;\n            }\n        }\n\n        require(!hasSameName, \"There is already a app of the same name\");\n        require(!hasSameTokenURI, \"There is already a app of the same tokenURI\");\n\n        _mint(sender, newItemId);\n        _setTokenURI(newItemId, tokenURI);\n        _appNameMap[newItemId] = name;\n\n        _tokenIds.increment();\n        return newItemId;\n    }\n\n    function currentCount() public view returns (uint256) {\n        return _tokenIds.current();\n    }\n\n    function getName(uint256 tokenId) public view returns (string memory) {\n        return _appNameMap[tokenId];\n    }\n\n    function compareString(string memory a, string memory b) internal pure returns (bool) {\n        if (bytes(a).length != bytes(b).length) {\n            return false;\n        }\n        if (keccak256(abi.encodePacked(a)) == keccak256(abi.encodePacked(b))) {\n            return true;\n        }\n        return false;\n    }\n}\n",
  "sourcePath": "/Users/guzhihao/Documents/code/ms/DAppStore/contracts/AppNFT.sol",
  "compiler": {
    "name": "solc",
    "version": "0.8.5+commit.a4f2e591.Emscripten.clang"
  },
  "schemaVersion": "3.4.7",
  "updatedAt": "2022-06-29T08:35:02.582Z",
  "networkType": "ethereum",
  "devdoc": {
    "kind": "dev",
    "methods": {
      "approve(address,uint256)": {
        "details": "See {IERC721-approve}."
      },
      "balanceOf(address)": {
        "details": "See {IERC721-balanceOf}."
      },
      "getApproved(uint256)": {
        "details": "See {IERC721-getApproved}."
      },
      "isApprovedForAll(address,address)": {
        "details": "See {IERC721-isApprovedForAll}."
      },
      "name()": {
        "details": "See {IERC721Metadata-name}."
      },
      "ownerOf(uint256)": {
        "details": "See {IERC721-ownerOf}."
      },
      "safeTransferFrom(address,address,uint256)": {
        "details": "See {IERC721-safeTransferFrom}."
      },
      "safeTransferFrom(address,address,uint256,bytes)": {
        "details": "See {IERC721-safeTransferFrom}."
      },
      "setApprovalForAll(address,bool)": {
        "details": "See {IERC721-setApprovalForAll}."
      },
      "supportsInterface(bytes4)": {
        "details": "See {IERC165-supportsInterface}."
      },
      "symbol()": {
        "details": "See {IERC721Metadata-symbol}."
      },
      "tokenURI(uint256)": {
        "details": "See {IERC721Metadata-tokenURI}."
      },
      "transferFrom(address,address,uint256)": {
        "details": "See {IERC721-transferFrom}."
      }
    },
    "version": 1
  },
  "userdoc": {
    "kind": "user",
    "methods": {},
    "version": 1
  }
}