{
  "contractName": "AppStore",
  "abi": [
    {
      "inputs": [],
      "stateMutability": "nonpayable",
      "type": "constructor"
    },
    {
      "anonymous": false,
      "inputs": [
        {
          "indexed": false,
          "internalType": "address",
          "name": "buyer",
          "type": "address"
        },
        {
          "indexed": false,
          "internalType": "address",
          "name": "seller",
          "type": "address"
        },
        {
          "indexed": false,
          "internalType": "uint256",
          "name": "tokenId",
          "type": "uint256"
        },
        {
          "indexed": false,
          "internalType": "uint256",
          "name": "price",
          "type": "uint256"
        }
      ],
      "name": "OnBuy",
      "type": "event"
    },
    {
      "anonymous": false,
      "inputs": [
        {
          "indexed": false,
          "internalType": "address",
          "name": "seller",
          "type": "address"
        },
        {
          "indexed": false,
          "internalType": "uint256",
          "name": "tokenId",
          "type": "uint256"
        },
        {
          "indexed": false,
          "internalType": "string",
          "name": "name",
          "type": "string"
        },
        {
          "indexed": false,
          "internalType": "uint256",
          "name": "price",
          "type": "uint256"
        }
      ],
      "name": "OnSell",
      "type": "event"
    },
    {
      "stateMutability": "nonpayable",
      "type": "fallback"
    },
    {
      "inputs": [
        {
          "internalType": "uint256",
          "name": "",
          "type": "uint256"
        }
      ],
      "name": "appMap",
      "outputs": [
        {
          "internalType": "uint256",
          "name": "price",
          "type": "uint256"
        },
        {
          "internalType": "address payable",
          "name": "seller",
          "type": "address"
        }
      ],
      "stateMutability": "view",
      "type": "function",
      "constant": true
    },
    {
      "inputs": [],
      "name": "appNTF",
      "outputs": [
        {
          "internalType": "contract AppNFT",
          "name": "",
          "type": "address"
        }
      ],
      "stateMutability": "view",
      "type": "function",
      "constant": true
    },
    {
      "inputs": [],
      "name": "totalCount",
      "outputs": [
        {
          "internalType": "uint256",
          "name": "",
          "type": "uint256"
        }
      ],
      "stateMutability": "view",
      "type": "function",
      "constant": true
    },
    {
      "inputs": [
        {
          "internalType": "uint256",
          "name": "tokenId",
          "type": "uint256"
        }
      ],
      "name": "getTokenURI",
      "outputs": [
        {
          "internalType": "string",
          "name": "",
          "type": "string"
        }
      ],
      "stateMutability": "view",
      "type": "function",
      "constant": true
    },
    {
      "inputs": [
        {
          "internalType": "uint256",
          "name": "tokenId",
          "type": "uint256"
        }
      ],
      "name": "getAppName",
      "outputs": [
        {
          "internalType": "string",
          "name": "",
          "type": "string"
        }
      ],
      "stateMutability": "view",
      "type": "function",
      "constant": true
    },
    {
      "inputs": [
        {
          "internalType": "uint256",
          "name": "tokenId",
          "type": "uint256"
        }
      ],
      "name": "getAppSeller",
      "outputs": [
        {
          "internalType": "address",
          "name": "",
          "type": "address"
        }
      ],
      "stateMutability": "view",
      "type": "function",
      "constant": true
    },
    {
      "inputs": [
        {
          "internalType": "uint256",
          "name": "tokenId",
          "type": "uint256"
        }
      ],
      "name": "getAppPrice",
      "outputs": [
        {
          "internalType": "uint256",
          "name": "",
          "type": "uint256"
        }
      ],
      "stateMutability": "view",
      "type": "function",
      "constant": true
    },
    {
      "inputs": [
        {
          "internalType": "uint256",
          "name": "tokenId",
          "type": "uint256"
        }
      ],
      "name": "getAppBuyers",
      "outputs": [
        {
          "internalType": "address[]",
          "name": "buyers",
          "type": "address[]"
        }
      ],
      "stateMutability": "view",
      "type": "function",
      "constant": true
    },
    {
      "inputs": [
        {
          "internalType": "string",
          "name": "name",
          "type": "string"
        },
        {
          "internalType": "string",
          "name": "tokenURI",
          "type": "string"
        },
        {
          "internalType": "uint256",
          "name": "price",
          "type": "uint256"
        }
      ],
      "name": "sell",
      "outputs": [
        {
          "internalType": "uint256",
          "name": "",
          "type": "uint256"
        }
      ],
      "stateMutability": "nonpayable",
      "type": "function"
    },
    {
      "inputs": [
        {
          "internalType": "uint256",
          "name": "tokenId",
          "type": "uint256"
        }
      ],
      "name": "buy",
      "outputs": [
        {
          "internalType": "bool",
          "name": "",
          "type": "bool"
        }
      ],
      "stateMutability": "payable",
      "type": "function",
      "payable": true
    },
    {
      "inputs": [
        {
          "internalType": "uint256",
          "name": "tokenId",
          "type": "uint256"
        },
        {
          "internalType": "address",
          "name": "buyer",
          "type": "address"
        }
      ],
      "name": "verify",
      "outputs": [
        {
          "internalType": "bool",
          "name": "",
          "type": "bool"
        }
      ],
      "stateMutability": "view",
      "type": "function",
      "constant": true
    },
    {
      "inputs": [
        {
          "internalType": "address",
          "name": "seller",
          "type": "address"
        }
      ],
      "name": "getTokenIdsBySeller",
      "outputs": [
        {
          "internalType": "uint256[]",
          "name": "tokenIds",
          "type": "uint256[]"
        }
      ],
      "stateMutability": "view",
      "type": "function",
      "constant": true
    },
    {
      "inputs": [
        {
          "internalType": "address",
          "name": "buyer",
          "type": "address"
        }
      ],
      "name": "getTokenIdsByBuyer",
      "outputs": [
        {
          "internalType": "uint256[]",
          "name": "tokenIds",
          "type": "uint256[]"
        }
      ],
      "stateMutability": "view",
      "type": "function",
      "constant": true
    }
  ],
  "bytecode": "0x608060405234801561001057600080fd5b5060405161001d9061007e565b604051809103906000f080158015610039573d6000803e3d6000fd5b506000806101000a81548173ffffffffffffffffffffffffffffffffffffffff021916908373ffffffffffffffffffffffffffffffffffffffff16021790555061008c565b6134688062001a8483390190565b6119e8806200009c6000396000f3fe6080604052600436106100c65760003560e01c80637e9427b21161007f578063d96a094a11610059578063d96a094a146102db578063e70552991461030b578063ebfa62b914610348578063ed0c5f8f14610385576100c7565b80637e9427b214610236578063bace3b5914610273578063d952fee51461029e576100c7565b80631724e2ed146100d957806334eafb11146101175780633bb3a24d1461014257806365d824071461017f5780636d13acb9146101bc5780637e8b15d1146101f9576100c7565b5b3480156100d357600080fd5b50600080fd5b3480156100e557600080fd5b5061010060048036038101906100fb9190611167565b6103c2565b60405161010e92919061160f565b60405180910390f35b34801561012357600080fd5b5061012c610406565b60405161013991906115f4565b60405180910390f35b34801561014e57600080fd5b5061016960048036038101906101649190611167565b6104ac565b6040516101769190611572565b60405180910390f35b34801561018b57600080fd5b506101a660048036038101906101a19190611167565b610563565b6040516101b39190611407565b60405180910390f35b3480156101c857600080fd5b506101e360048036038101906101de9190611167565b6105a3565b6040516101f091906114f8565b60405180910390f35b34801561020557600080fd5b50610220600480360381019061021b91906110dc565b610647565b60405161022d91906115f4565b60405180910390f35b34801561024257600080fd5b5061025d60048036038101906102589190611167565b610819565b60405161026a91906115f4565b60405180910390f35b34801561027f57600080fd5b50610288610839565b6040516102959190611557565b60405180910390f35b3480156102aa57600080fd5b506102c560048036038101906102c09190611066565b61085d565b6040516102d2919061151a565b60405180910390f35b6102f560048036038101906102f09190611167565b6108f4565b604051610302919061153c565b60405180910390f35b34801561031757600080fd5b50610332600480360381019061032d9190611066565b610cdc565b60405161033f919061151a565b60405180910390f35b34801561035457600080fd5b5061036f600480360381019061036a91906111c1565b610d73565b60405161037c919061153c565b60405180910390f35b34801561039157600080fd5b506103ac60048036038101906103a79190611167565b610e90565b6040516103b99190611572565b60405180910390f35b60016020528060005260406000206000915090508060000154908060010160009054906101000a900473ffffffffffffffffffffffffffffffffffffffff16905082565b60008060009054906101000a900473ffffffffffffffffffffffffffffffffffffffff1673ffffffffffffffffffffffffffffffffffffffff1663c732d2016040518163ffffffff1660e01b815260040160206040518083038186803b15801561046f57600080fd5b505afa158015610483573d6000803e3d6000fd5b505050506040513d601f19601f820116820180604052508101906104a79190611194565b905090565b606060008054906101000a900473ffffffffffffffffffffffffffffffffffffffff1673ffffffffffffffffffffffffffffffffffffffff1663c87b56dd836040518263ffffffff1660e01b815260040161050791906115f4565b60006040518083038186803b15801561051f57600080fd5b505afa158015610533573d6000803e3d6000fd5b505050506040513d6000823e3d601f19601f8201168201806040525081019061055c9190611093565b9050919050565b60006001600083815260200190815260200160002060010160009054906101000a900473ffffffffffffffffffffffffffffffffffffffff169050919050565b60606001600083815260200190815260200160002060020180548060200260200160405190810160405280929190818152602001828054801561063b57602002820191906000526020600020905b8160009054906101000a900473ffffffffffffffffffffffffffffffffffffffff1673ffffffffffffffffffffffffffffffffffffffff16815260200190600101908083116105f1575b50505050509050919050565b60008060008054906101000a900473ffffffffffffffffffffffffffffffffffffffff1673ffffffffffffffffffffffffffffffffffffffff166346bc7fd93386886040518463ffffffff1660e01b81526004016106a793929190611467565b602060405180830381600087803b1580156106c157600080fd5b505af11580156106d5573d6000803e3d6000fd5b505050506040513d601f19601f820116820180604052508101906106f99190611194565b9050336001600083815260200190815260200160002060010160006101000a81548173ffffffffffffffffffffffffffffffffffffffff021916908373ffffffffffffffffffffffffffffffffffffffff160217905550826001600083815260200190815260200160002060000181905550600260003373ffffffffffffffffffffffffffffffffffffffff1673ffffffffffffffffffffffffffffffffffffffff1681526020019081526020016000208190806001815401808255809150506001900390600052602060002001600090919091909150557fbbdc829b674616d7bf316fed0006ac7440b0a2e6cefdf49b78731cb26e6ef09b3382878660405161080694939291906114ac565b60405180910390a1809150509392505050565b600060016000838152602001908152602001600020600001549050919050565b60008054906101000a900473ffffffffffffffffffffffffffffffffffffffff1681565b6060600360008373ffffffffffffffffffffffffffffffffffffffff1673ffffffffffffffffffffffffffffffffffffffff1681526020019081526020016000208054806020026020016040519081016040528092919081815260200182805480156108e857602002820191906000526020600020905b8154815260200190600101908083116108d4575b50505050509050919050565b60008073ffffffffffffffffffffffffffffffffffffffff166001600084815260200190815260200160002060010160009054906101000a900473ffffffffffffffffffffffffffffffffffffffff1673ffffffffffffffffffffffffffffffffffffffff16141561099b576040517f08c379a0000000000000000000000000000000000000000000000000000000008152600401610992906115d4565b60405180910390fd5b346001600084815260200190815260200160002060000154146109f3576040517f08c379a00000000000000000000000000000000000000000000000000000000081526004016109ea90611594565b60405180910390fd5b600115156001600084815260200190815260200160002060030160003373ffffffffffffffffffffffffffffffffffffffff1673ffffffffffffffffffffffffffffffffffffffff16815260200190815260200160002060009054906101000a900460ff1615151415610a9b576040517f08c379a0000000000000000000000000000000000000000000000000000000008152600401610a92906115b4565b60405180910390fd5b6001600083815260200190815260200160002060010160009054906101000a900473ffffffffffffffffffffffffffffffffffffffff1673ffffffffffffffffffffffffffffffffffffffff166108fc349081150290604051600060405180830381858888f19350505050158015610b17573d6000803e3d6000fd5b50600180600084815260200190815260200160002060030160003373ffffffffffffffffffffffffffffffffffffffff1673ffffffffffffffffffffffffffffffffffffffff16815260200190815260200160002060006101000a81548160ff02191690831515021790555060016000838152602001908152602001600020600201339080600181540180825580915050600190039060005260206000200160009091909190916101000a81548173ffffffffffffffffffffffffffffffffffffffff021916908373ffffffffffffffffffffffffffffffffffffffff160217905550600360003373ffffffffffffffffffffffffffffffffffffffff1673ffffffffffffffffffffffffffffffffffffffff1681526020019081526020016000208290806001815401808255809150506001900390600052602060002001600090919091909150557fd2f51e9c4ab03ebb68f3e4fead0ef8727dbac100e78d1321ad0a2c247965df53336001600085815260200190815260200160002060010160009054906101000a900473ffffffffffffffffffffffffffffffffffffffff168434604051610ccb9493929190611422565b60405180910390a160019050919050565b6060600260008373ffffffffffffffffffffffffffffffffffffffff1673ffffffffffffffffffffffffffffffffffffffff168152602001908152602001600020805480602002602001604051908101604052809291908181526020018280548015610d6757602002820191906000526020600020905b815481526020019060010190808311610d53575b50505050509050919050565b60008073ffffffffffffffffffffffffffffffffffffffff166001600085815260200190815260200160002060010160009054906101000a900473ffffffffffffffffffffffffffffffffffffffff1673ffffffffffffffffffffffffffffffffffffffff161415610e1a576040517f08c379a0000000000000000000000000000000000000000000000000000000008152600401610e11906115d4565b60405180910390fd5b6000600115156001600086815260200190815260200160002060030160008573ffffffffffffffffffffffffffffffffffffffff1673ffffffffffffffffffffffffffffffffffffffff16815260200190815260200160002060009054906101000a900460ff1615151490508091505092915050565b606060008054906101000a900473ffffffffffffffffffffffffffffffffffffffff1673ffffffffffffffffffffffffffffffffffffffff16636b8ff574836040518263ffffffff1660e01b8152600401610eeb91906115f4565b60006040518083038186803b158015610f0357600080fd5b505afa158015610f17573d6000803e3d6000fd5b505050506040513d6000823e3d601f19601f82011682018060405250810190610f409190611093565b9050919050565b6000610f5a610f558461165d565b611638565b905082815260208101848484011115610f7657610f75611877565b5b610f818482856117d0565b509392505050565b6000610f9c610f978461165d565b611638565b905082815260208101848484011115610fb857610fb7611877565b5b610fc38482856117df565b509392505050565b600081359050610fda81611984565b92915050565b600082601f830112610ff557610ff4611872565b5b8135611005848260208601610f47565b91505092915050565b600082601f83011261102357611022611872565b5b8151611033848260208601610f89565b91505092915050565b60008135905061104b8161199b565b92915050565b6000815190506110608161199b565b92915050565b60006020828403121561107c5761107b611881565b5b600061108a84828501610fcb565b91505092915050565b6000602082840312156110a9576110a8611881565b5b600082015167ffffffffffffffff8111156110c7576110c661187c565b5b6110d38482850161100e565b91505092915050565b6000806000606084860312156110f5576110f4611881565b5b600084013567ffffffffffffffff8111156111135761111261187c565b5b61111f86828701610fe0565b935050602084013567ffffffffffffffff8111156111405761113f61187c565b5b61114c86828701610fe0565b925050604061115d8682870161103c565b9150509250925092565b60006020828403121561117d5761117c611881565b5b600061118b8482850161103c565b91505092915050565b6000602082840312156111aa576111a9611881565b5b60006111b884828501611051565b91505092915050565b600080604083850312156111d8576111d7611881565b5b60006111e68582860161103c565b92505060206111f785828601610fcb565b9150509250929050565b600061120d838361124f565b60208301905092915050565b600061122583836113e9565b60208301905092915050565b61123a81611776565b82525050565b6112498161172e565b82525050565b6112588161171c565b82525050565b6112678161171c565b82525050565b6000611278826116ae565b61128281856116e9565b935061128d8361168e565b8060005b838110156112be5781516112a58882611201565b97506112b0836116cf565b925050600181019050611291565b5085935050505092915050565b60006112d6826116b9565b6112e081856116fa565b93506112eb8361169e565b8060005b8381101561131c5781516113038882611219565b975061130e836116dc565b9250506001810190506112ef565b5085935050505092915050565b61133281611740565b82525050565b61134181611788565b82525050565b6000611352826116c4565b61135c818561170b565b935061136c8185602086016117df565b61137581611886565b840191505092915050565b600061138d60338361170b565b915061139882611897565b604082019050919050565b60006113b060268361170b565b91506113bb826118e6565b604082019050919050565b60006113d360318361170b565b91506113de82611935565b604082019050919050565b6113f28161176c565b82525050565b6114018161176c565b82525050565b600060208201905061141c600083018461125e565b92915050565b6000608082019050611437600083018761125e565b6114446020830186611231565b61145160408301856113f8565b61145e60608301846113f8565b95945050505050565b600060608201905061147c600083018661125e565b818103602083015261148e8185611347565b905081810360408301526114a28184611347565b9050949350505050565b60006080820190506114c1600083018761125e565b6114ce60208301866113f8565b81810360408301526114e08185611347565b90506114ef60608301846113f8565b95945050505050565b60006020820190508181036000830152611512818461126d565b905092915050565b6000602082019050818103600083015261153481846112cb565b905092915050565b60006020820190506115516000830184611329565b92915050565b600060208201905061156c6000830184611338565b92915050565b6000602082019050818103600083015261158c8184611347565b905092915050565b600060208201905081810360008301526115ad81611380565b9050919050565b600060208201905081810360008301526115cd816113a3565b9050919050565b600060208201905081810360008301526115ed816113c6565b9050919050565b600060208201905061160960008301846113f8565b92915050565b600060408201905061162460008301856113f8565b6116316020830184611240565b9392505050565b6000611642611653565b905061164e8282611812565b919050565b6000604051905090565b600067ffffffffffffffff82111561167857611677611843565b5b61168182611886565b9050602081019050919050565b6000819050602082019050919050565b6000819050602082019050919050565b600081519050919050565b600081519050919050565b600081519050919050565b6000602082019050919050565b6000602082019050919050565b600082825260208201905092915050565b600082825260208201905092915050565b600082825260208201905092915050565b60006117278261174c565b9050919050565b60006117398261174c565b9050919050565b60008115159050919050565b600073ffffffffffffffffffffffffffffffffffffffff82169050919050565b6000819050919050565b6000611781826117ac565b9050919050565b60006117938261179a565b9050919050565b60006117a58261174c565b9050919050565b60006117b7826117be565b9050919050565b60006117c98261174c565b9050919050565b82818337600083830152505050565b60005b838110156117fd5780820151818401526020810190506117e2565b8381111561180c576000848401525b50505050565b61181b82611886565b810181811067ffffffffffffffff8211171561183a57611839611843565b5b80604052505050565b7f4e487b7100000000000000000000000000000000000000000000000000000000600052604160045260246000fd5b600080fd5b600080fd5b600080fd5b600080fd5b6000601f19601f8301169050919050565b7f4572726f723a2054686520707572636861736520707269636520666f7220746860008201527f69732061707020697320696e636f727265637400000000000000000000000000602082015250565b7f4572726f723a205468697320757365722068617320616c72656164792070757260008201527f6368617365640000000000000000000000000000000000000000000000000000602082015250565b7f4572726f723a205468657265206973206e6f2061707020706f696e746564207460008201527f6f206279207468697320746f6b656e4964000000000000000000000000000000602082015250565b61198d8161171c565b811461199857600080fd5b50565b6119a48161176c565b81146119af57600080fd5b5056fea2646970667358221220475a1af82a25e6dcd178dca882a95ee03939413487c5c5a654018bfd33e373e964736f6c6343000805003360806040523480156200001157600080fd5b506040518060400160405280600981526020017f426974466f7265737400000000000000000000000000000000000000000000008152506040518060400160405280600381526020017f4246540000000000000000000000000000000000000000000000000000000000815250816000908051906020019062000096929190620000b8565b508060019080519060200190620000af929190620000b8565b505050620001cd565b828054620000c69062000168565b90600052602060002090601f016020900481019282620000ea576000855562000136565b82601f106200010557805160ff191683800117855562000136565b8280016001018555821562000136579182015b828111156200013557825182559160200191906001019062000118565b5b50905062000145919062000149565b5090565b5b80821115620001645760008160009055506001016200014a565b5090565b600060028204905060018216806200018157607f821691505b602082108114156200019857620001976200019e565b5b50919050565b7f4e487b7100000000000000000000000000000000000000000000000000000000600052602260045260246000fd5b61328b80620001dd6000396000f3fe608060405234801561001057600080fd5b506004361061010b5760003560e01c80636b8ff574116100a2578063a22cb46511610071578063a22cb465146102f0578063b88d4fde1461030c578063c732d20114610328578063c87b56dd14610346578063e985e9c5146103765761010b565b80636b8ff574146102425780636e3eb43f1461027257806370a08231146102a257806395d89b41146102d25761010b565b806323b872dd116100de57806323b872dd146101aa57806342842e0e146101c657806346bc7fd9146101e25780636352211e146102125761010b565b806301ffc9a71461011057806306fdde0314610140578063081812fc1461015e578063095ea7b31461018e575b600080fd5b61012a60048036038101906101259190612165565b6103a6565b604051610137919061261d565b60405180910390f35b610148610488565b6040516101559190612638565b60405180910390f35b61017860048036038101906101739190612208565b61051a565b60405161018591906125b6565b60405180910390f35b6101a860048036038101906101a39190612125565b61059f565b005b6101c460048036038101906101bf9190611f84565b6106b7565b005b6101e060048036038101906101db9190611f84565b610717565b005b6101fc60048036038101906101f7919061209a565b610737565b604051610209919061289a565b60405180910390f35b61022c60048036038101906102279190612208565b610995565b60405161023991906125b6565b60405180910390f35b61025c60048036038101906102579190612208565b610a47565b6040516102699190612638565b60405180910390f35b61028c60048036038101906102879190612208565b610aec565b6040516102999190612638565b60405180910390f35b6102bc60048036038101906102b79190611f17565b610b8c565b6040516102c9919061289a565b60405180910390f35b6102da610c44565b6040516102e79190612638565b60405180910390f35b61030a6004803603810190610305919061205a565b610cd6565b005b61032660048036038101906103219190611fd7565b610cec565b005b610330610d4e565b60405161033d919061289a565b60405180910390f35b610360600480360381019061035b9190612208565b610d5f565b60405161036d9190612638565b60405180910390f35b610390600480360381019061038b9190611f44565b610eb1565b60405161039d919061261d565b60405180910390f35b60007f80ac58cd000000000000000000000000000000000000000000000000000000007bffffffffffffffffffffffffffffffffffffffffffffffffffffffff1916827bffffffffffffffffffffffffffffffffffffffffffffffffffffffff1916148061047157507f5b5e139f000000000000000000000000000000000000000000000000000000007bffffffffffffffffffffffffffffffffffffffffffffffffffffffff1916827bffffffffffffffffffffffffffffffffffffffffffffffffffffffff1916145b80610481575061048082610f45565b5b9050919050565b60606000805461049790612af0565b80601f01602080910402602001604051908101604052809291908181526020018280546104c390612af0565b80156105105780601f106104e557610100808354040283529160200191610510565b820191906000526020600020905b8154815290600101906020018083116104f357829003601f168201915b5050505050905090565b600061052582610faf565b610564576040517f08c379a000000000000000000000000000000000000000000000000000000000815260040161055b906127da565b60405180910390fd5b6004600083815260200190815260200160002060009054906101000a900473ffffffffffffffffffffffffffffffffffffffff169050919050565b60006105aa82610995565b90508073ffffffffffffffffffffffffffffffffffffffff168373ffffffffffffffffffffffffffffffffffffffff16141561061b576040517f08c379a00000000000000000000000000000000000000000000000000000000081526004016106129061281a565b60405180910390fd5b8073ffffffffffffffffffffffffffffffffffffffff1661063a61101b565b73ffffffffffffffffffffffffffffffffffffffff16148061066957506106688161066361101b565b610eb1565b5b6106a8576040517f08c379a000000000000000000000000000000000000000000000000000000000815260040161069f9061271a565b60405180910390fd5b6106b28383611023565b505050565b6106c86106c261101b565b826110dc565b610707576040517f08c379a00000000000000000000000000000000000000000000000000000000081526004016106fe9061285a565b60405180910390fd5b6107128383836111ba565b505050565b61073283838360405180602001604052806000815250610cec565b505050565b6000806107446007611421565b905060008060005b838110156108bf576107f960086000838152602001908152602001600020805461077590612af0565b80601f01602080910402602001604051908101604052809291908181526020018280546107a190612af0565b80156107ee5780601f106107c3576101008083540402835291602001916107ee565b820191906000526020600020905b8154815290600101906020018083116107d157829003601f168201915b50505050508761142f565b1561080757600192506108bf565b61089e3073ffffffffffffffffffffffffffffffffffffffff1663c87b56dd836040518263ffffffff1660e01b8152600401610843919061289a565b60006040518083038186803b15801561085b57600080fd5b505afa15801561086f573d6000803e3d6000fd5b505050506040513d6000823e3d601f19601f8201168201806040525081019061089891906121bf565b8861142f565b156108ac57600191506108bf565b80806108b790612b53565b91505061074c565b508115610901576040517f08c379a00000000000000000000000000000000000000000000000000000000081526004016108f89061287a565b60405180910390fd5b8015610942576040517f08c379a00000000000000000000000000000000000000000000000000000000081526004016109399061283a565b60405180910390fd5b61094c87846114ab565b6109568387611685565b8460086000858152602001908152602001600020908051906020019061097d929190611cbb565b5061098860076116f9565b8293505050509392505050565b6000806002600084815260200190815260200160002060009054906101000a900473ffffffffffffffffffffffffffffffffffffffff169050600073ffffffffffffffffffffffffffffffffffffffff168173ffffffffffffffffffffffffffffffffffffffff161415610a3e576040517f08c379a0000000000000000000000000000000000000000000000000000000008152600401610a359061275a565b60405180910390fd5b80915050919050565b6060600860008381526020019081526020016000208054610a6790612af0565b80601f0160208091040260200160405190810160405280929190818152602001828054610a9390612af0565b8015610ae05780601f10610ab557610100808354040283529160200191610ae0565b820191906000526020600020905b815481529060010190602001808311610ac357829003601f168201915b50505050509050919050565b60086020528060005260406000206000915090508054610b0b90612af0565b80601f0160208091040260200160405190810160405280929190818152602001828054610b3790612af0565b8015610b845780601f10610b5957610100808354040283529160200191610b84565b820191906000526020600020905b815481529060010190602001808311610b6757829003601f168201915b505050505081565b60008073ffffffffffffffffffffffffffffffffffffffff168273ffffffffffffffffffffffffffffffffffffffff161415610bfd576040517f08c379a0000000000000000000000000000000000000000000000000000000008152600401610bf49061273a565b60405180910390fd5b600360008373ffffffffffffffffffffffffffffffffffffffff1673ffffffffffffffffffffffffffffffffffffffff168152602001908152602001600020549050919050565b606060018054610c5390612af0565b80601f0160208091040260200160405190810160405280929190818152602001828054610c7f90612af0565b8015610ccc5780601f10610ca157610100808354040283529160200191610ccc565b820191906000526020600020905b815481529060010190602001808311610caf57829003601f168201915b5050505050905090565b610ce8610ce161101b565b838361170f565b5050565b610cfd610cf761101b565b836110dc565b610d3c576040517f08c379a0000000000000000000000000000000000000000000000000000000008152600401610d339061285a565b60405180910390fd5b610d488484848461187c565b50505050565b6000610d5a6007611421565b905090565b6060610d6a82610faf565b610da9576040517f08c379a0000000000000000000000000000000000000000000000000000000008152600401610da0906127ba565b60405180910390fd5b6000600660008481526020019081526020016000208054610dc990612af0565b80601f0160208091040260200160405190810160405280929190818152602001828054610df590612af0565b8015610e425780601f10610e1757610100808354040283529160200191610e42565b820191906000526020600020905b815481529060010190602001808311610e2557829003601f168201915b505050505090506000610e536118d8565b9050600081511415610e69578192505050610eac565b600082511115610e9e578082604051602001610e86929190612592565b60405160208183030381529060405292505050610eac565b610ea7846118ef565b925050505b919050565b6000600560008473ffffffffffffffffffffffffffffffffffffffff1673ffffffffffffffffffffffffffffffffffffffff16815260200190815260200160002060008373ffffffffffffffffffffffffffffffffffffffff1673ffffffffffffffffffffffffffffffffffffffff16815260200190815260200160002060009054906101000a900460ff16905092915050565b60007f01ffc9a7000000000000000000000000000000000000000000000000000000007bffffffffffffffffffffffffffffffffffffffffffffffffffffffff1916827bffffffffffffffffffffffffffffffffffffffffffffffffffffffff1916149050919050565b60008073ffffffffffffffffffffffffffffffffffffffff166002600084815260200190815260200160002060009054906101000a900473ffffffffffffffffffffffffffffffffffffffff1673ffffffffffffffffffffffffffffffffffffffff1614159050919050565b600033905090565b816004600083815260200190815260200160002060006101000a81548173ffffffffffffffffffffffffffffffffffffffff021916908373ffffffffffffffffffffffffffffffffffffffff160217905550808273ffffffffffffffffffffffffffffffffffffffff1661109683610995565b73ffffffffffffffffffffffffffffffffffffffff167f8c5be1e5ebec7d5bd14f71427d1e84f3dd0314c0f7b2291e5b200ac8c7c3b92560405160405180910390a45050565b60006110e782610faf565b611126576040517f08c379a000000000000000000000000000000000000000000000000000000000815260040161111d906126fa565b60405180910390fd5b600061113183610995565b90508073ffffffffffffffffffffffffffffffffffffffff168473ffffffffffffffffffffffffffffffffffffffff16148061117357506111728185610eb1565b5b806111b157508373ffffffffffffffffffffffffffffffffffffffff166111998461051a565b73ffffffffffffffffffffffffffffffffffffffff16145b91505092915050565b8273ffffffffffffffffffffffffffffffffffffffff166111da82610995565b73ffffffffffffffffffffffffffffffffffffffff1614611230576040517f08c379a00000000000000000000000000000000000000000000000000000000081526004016112279061267a565b60405180910390fd5b600073ffffffffffffffffffffffffffffffffffffffff168273ffffffffffffffffffffffffffffffffffffffff1614156112a0576040517f08c379a0000000000000000000000000000000000000000000000000000000008152600401611297906126ba565b60405180910390fd5b6112ab838383611996565b6112b6600082611023565b6001600360008573ffffffffffffffffffffffffffffffffffffffff1673ffffffffffffffffffffffffffffffffffffffff16815260200190815260200160002060008282546113069190612a06565b925050819055506001600360008473ffffffffffffffffffffffffffffffffffffffff1673ffffffffffffffffffffffffffffffffffffffff168152602001908152602001600020600082825461135d919061297f565b92505081905550816002600083815260200190815260200160002060006101000a81548173ffffffffffffffffffffffffffffffffffffffff021916908373ffffffffffffffffffffffffffffffffffffffff160217905550808273ffffffffffffffffffffffffffffffffffffffff168473ffffffffffffffffffffffffffffffffffffffff167fddf252ad1be2c89b69c2b068fc378daa952ba7f163c4a11628f55a4df523b3ef60405160405180910390a461141c83838361199b565b505050565b600081600001549050919050565b6000815183511461144357600090506114a5565b81604051602001611454919061257b565b604051602081830303815290604052805190602001208360405160200161147b919061257b565b6040516020818303038152906040528051906020012014156114a057600190506114a5565b600090505b92915050565b600073ffffffffffffffffffffffffffffffffffffffff168273ffffffffffffffffffffffffffffffffffffffff16141561151b576040517f08c379a00000000000000000000000000000000000000000000000000000000081526004016115129061279a565b60405180910390fd5b61152481610faf565b15611564576040517f08c379a000000000000000000000000000000000000000000000000000000000815260040161155b9061269a565b60405180910390fd5b61157060008383611996565b6001600360008473ffffffffffffffffffffffffffffffffffffffff1673ffffffffffffffffffffffffffffffffffffffff16815260200190815260200160002060008282546115c0919061297f565b92505081905550816002600083815260200190815260200160002060006101000a81548173ffffffffffffffffffffffffffffffffffffffff021916908373ffffffffffffffffffffffffffffffffffffffff160217905550808273ffffffffffffffffffffffffffffffffffffffff16600073ffffffffffffffffffffffffffffffffffffffff167fddf252ad1be2c89b69c2b068fc378daa952ba7f163c4a11628f55a4df523b3ef60405160405180910390a46116816000838361199b565b5050565b61168e82610faf565b6116cd576040517f08c379a00000000000000000000000000000000000000000000000000000000081526004016116c49061277a565b60405180910390fd5b806006600084815260200190815260200160002090805190602001906116f4929190611cbb565b505050565b6001816000016000828254019250508190555050565b8173ffffffffffffffffffffffffffffffffffffffff168373ffffffffffffffffffffffffffffffffffffffff16141561177e576040517f08c379a0000000000000000000000000000000000000000000000000000000008152600401611775906126da565b60405180910390fd5b80600560008573ffffffffffffffffffffffffffffffffffffffff1673ffffffffffffffffffffffffffffffffffffffff16815260200190815260200160002060008473ffffffffffffffffffffffffffffffffffffffff1673ffffffffffffffffffffffffffffffffffffffff16815260200190815260200160002060006101000a81548160ff0219169083151502179055508173ffffffffffffffffffffffffffffffffffffffff168373ffffffffffffffffffffffffffffffffffffffff167f17307eab39ab6107e8899845ad3d59bd9653f200f220920489ca2b5937696c318360405161186f919061261d565b60405180910390a3505050565b6118878484846111ba565b611893848484846119a0565b6118d2576040517f08c379a00000000000000000000000000000000000000000000000000000000081526004016118c99061265a565b60405180910390fd5b50505050565b606060405180602001604052806000815250905090565b60606118fa82610faf565b611939576040517f08c379a0000000000000000000000000000000000000000000000000000000008152600401611930906127fa565b60405180910390fd5b60006119436118d8565b90506000815111611963576040518060200160405280600081525061198e565b8061196d84611b37565b60405160200161197e929190612592565b6040516020818303038152906040525b915050919050565b505050565b505050565b60006119c18473ffffffffffffffffffffffffffffffffffffffff16611c98565b15611b2a578373ffffffffffffffffffffffffffffffffffffffff1663150b7a026119ea61101b565b8786866040518563ffffffff1660e01b8152600401611a0c94939291906125d1565b602060405180830381600087803b158015611a2657600080fd5b505af1925050508015611a5757506040513d601f19601f82011682018060405250810190611a549190612192565b60015b611ada573d8060008114611a87576040519150601f19603f3d011682016040523d82523d6000602084013e611a8c565b606091505b50600081511415611ad2576040517f08c379a0000000000000000000000000000000000000000000000000000000008152600401611ac99061265a565b60405180910390fd5b805181602001fd5b63150b7a0260e01b7bffffffffffffffffffffffffffffffffffffffffffffffffffffffff1916817bffffffffffffffffffffffffffffffffffffffffffffffffffffffff191614915050611b2f565b600190505b949350505050565b60606000821415611b7f576040518060400160405280600181526020017f30000000000000000000000000000000000000000000000000000000000000008152509050611c93565b600082905060005b60008214611bb1578080611b9a90612b53565b915050600a82611baa91906129d5565b9150611b87565b60008167ffffffffffffffff811115611bcd57611bcc612c89565b5b6040519080825280601f01601f191660200182016040528015611bff5781602001600182028036833780820191505090505b5090505b60008514611c8c57600182611c189190612a06565b9150600a85611c279190612b9c565b6030611c33919061297f565b60f81b818381518110611c4957611c48612c5a565b5b60200101907effffffffffffffffffffffffffffffffffffffffffffffffffffffffffffff1916908160001a905350600a85611c8591906129d5565b9450611c03565b8093505050505b919050565b6000808273ffffffffffffffffffffffffffffffffffffffff163b119050919050565b828054611cc790612af0565b90600052602060002090601f016020900481019282611ce95760008555611d30565b82601f10611d0257805160ff1916838001178555611d30565b82800160010185558215611d30579182015b82811115611d2f578251825591602001919060010190611d14565b5b509050611d3d9190611d41565b5090565b5b80821115611d5a576000816000905550600101611d42565b5090565b6000611d71611d6c846128da565b6128b5565b905082815260208101848484011115611d8d57611d8c612cbd565b5b611d98848285612aae565b509392505050565b6000611db3611dae8461290b565b6128b5565b905082815260208101848484011115611dcf57611dce612cbd565b5b611dda848285612aae565b509392505050565b6000611df5611df08461290b565b6128b5565b905082815260208101848484011115611e1157611e10612cbd565b5b611e1c848285612abd565b509392505050565b600081359050611e33816131f9565b92915050565b600081359050611e4881613210565b92915050565b600081359050611e5d81613227565b92915050565b600081519050611e7281613227565b92915050565b600082601f830112611e8d57611e8c612cb8565b5b8135611e9d848260208601611d5e565b91505092915050565b600082601f830112611ebb57611eba612cb8565b5b8135611ecb848260208601611da0565b91505092915050565b600082601f830112611ee957611ee8612cb8565b5b8151611ef9848260208601611de2565b91505092915050565b600081359050611f118161323e565b92915050565b600060208284031215611f2d57611f2c612cc7565b5b6000611f3b84828501611e24565b91505092915050565b60008060408385031215611f5b57611f5a612cc7565b5b6000611f6985828601611e24565b9250506020611f7a85828601611e24565b9150509250929050565b600080600060608486031215611f9d57611f9c612cc7565b5b6000611fab86828701611e24565b9350506020611fbc86828701611e24565b9250506040611fcd86828701611f02565b9150509250925092565b60008060008060808587031215611ff157611ff0612cc7565b5b6000611fff87828801611e24565b945050602061201087828801611e24565b935050604061202187828801611f02565b925050606085013567ffffffffffffffff81111561204257612041612cc2565b5b61204e87828801611e78565b91505092959194509250565b6000806040838503121561207157612070612cc7565b5b600061207f85828601611e24565b925050602061209085828601611e39565b9150509250929050565b6000806000606084860312156120b3576120b2612cc7565b5b60006120c186828701611e24565b935050602084013567ffffffffffffffff8111156120e2576120e1612cc2565b5b6120ee86828701611ea6565b925050604084013567ffffffffffffffff81111561210f5761210e612cc2565b5b61211b86828701611ea6565b9150509250925092565b6000806040838503121561213c5761213b612cc7565b5b600061214a85828601611e24565b925050602061215b85828601611f02565b9150509250929050565b60006020828403121561217b5761217a612cc7565b5b600061218984828501611e4e565b91505092915050565b6000602082840312156121a8576121a7612cc7565b5b60006121b684828501611e63565b91505092915050565b6000602082840312156121d5576121d4612cc7565b5b600082015167ffffffffffffffff8111156121f3576121f2612cc2565b5b6121ff84828501611ed4565b91505092915050565b60006020828403121561221e5761221d612cc7565b5b600061222c84828501611f02565b91505092915050565b61223e81612a3a565b82525050565b61224d81612a4c565b82525050565b600061225e8261293c565b6122688185612952565b9350612278818560208601612abd565b61228181612ccc565b840191505092915050565b600061229782612947565b6122a18185612963565b93506122b1818560208601612abd565b6122ba81612ccc565b840191505092915050565b60006122d082612947565b6122da8185612974565b93506122ea818560208601612abd565b80840191505092915050565b6000612303603283612963565b915061230e82612cdd565b604082019050919050565b6000612326602583612963565b915061233182612d2c565b604082019050919050565b6000612349601c83612963565b915061235482612d7b565b602082019050919050565b600061236c602483612963565b915061237782612da4565b604082019050919050565b600061238f601983612963565b915061239a82612df3565b602082019050919050565b60006123b2602c83612963565b91506123bd82612e1c565b604082019050919050565b60006123d5603883612963565b91506123e082612e6b565b604082019050919050565b60006123f8602a83612963565b915061240382612eba565b604082019050919050565b600061241b602983612963565b915061242682612f09565b604082019050919050565b600061243e602e83612963565b915061244982612f58565b604082019050919050565b6000612461602083612963565b915061246c82612fa7565b602082019050919050565b6000612484603183612963565b915061248f82612fd0565b604082019050919050565b60006124a7602c83612963565b91506124b28261301f565b604082019050919050565b60006124ca602f83612963565b91506124d58261306e565b604082019050919050565b60006124ed602183612963565b91506124f8826130bd565b604082019050919050565b6000612510602b83612963565b915061251b8261310c565b604082019050919050565b6000612533603183612963565b915061253e8261315b565b604082019050919050565b6000612556602783612963565b9150612561826131aa565b604082019050919050565b61257581612aa4565b82525050565b600061258782846122c5565b915081905092915050565b600061259e82856122c5565b91506125aa82846122c5565b91508190509392505050565b60006020820190506125cb6000830184612235565b92915050565b60006080820190506125e66000830187612235565b6125f36020830186612235565b612600604083018561256c565b81810360608301526126128184612253565b905095945050505050565b60006020820190506126326000830184612244565b92915050565b60006020820190508181036000830152612652818461228c565b905092915050565b60006020820190508181036000830152612673816122f6565b9050919050565b6000602082019050818103600083015261269381612319565b9050919050565b600060208201905081810360008301526126b38161233c565b9050919050565b600060208201905081810360008301526126d38161235f565b9050919050565b600060208201905081810360008301526126f381612382565b9050919050565b60006020820190508181036000830152612713816123a5565b9050919050565b60006020820190508181036000830152612733816123c8565b9050919050565b60006020820190508181036000830152612753816123eb565b9050919050565b600060208201905081810360008301526127738161240e565b9050919050565b6000602082019050818103600083015261279381612431565b9050919050565b600060208201905081810360008301526127b381612454565b9050919050565b600060208201905081810360008301526127d381612477565b9050919050565b600060208201905081810360008301526127f38161249a565b9050919050565b60006020820190508181036000830152612813816124bd565b9050919050565b60006020820190508181036000830152612833816124e0565b9050919050565b6000602082019050818103600083015261285381612503565b9050919050565b6000602082019050818103600083015261287381612526565b9050919050565b6000602082019050818103600083015261289381612549565b9050919050565b60006020820190506128af600083018461256c565b92915050565b60006128bf6128d0565b90506128cb8282612b22565b919050565b6000604051905090565b600067ffffffffffffffff8211156128f5576128f4612c89565b5b6128fe82612ccc565b9050602081019050919050565b600067ffffffffffffffff82111561292657612925612c89565b5b61292f82612ccc565b9050602081019050919050565b600081519050919050565b600081519050919050565b600082825260208201905092915050565b600082825260208201905092915050565b600081905092915050565b600061298a82612aa4565b915061299583612aa4565b9250827fffffffffffffffffffffffffffffffffffffffffffffffffffffffffffffffff038211156129ca576129c9612bcd565b5b828201905092915050565b60006129e082612aa4565b91506129eb83612aa4565b9250826129fb576129fa612bfc565b5b828204905092915050565b6000612a1182612aa4565b9150612a1c83612aa4565b925082821015612a2f57612a2e612bcd565b5b828203905092915050565b6000612a4582612a84565b9050919050565b60008115159050919050565b60007fffffffff0000000000000000000000000000000000000000000000000000000082169050919050565b600073ffffffffffffffffffffffffffffffffffffffff82169050919050565b6000819050919050565b82818337600083830152505050565b60005b83811015612adb578082015181840152602081019050612ac0565b83811115612aea576000848401525b50505050565b60006002820490506001821680612b0857607f821691505b60208210811415612b1c57612b1b612c2b565b5b50919050565b612b2b82612ccc565b810181811067ffffffffffffffff82111715612b4a57612b49612c89565b5b80604052505050565b6000612b5e82612aa4565b91507fffffffffffffffffffffffffffffffffffffffffffffffffffffffffffffffff821415612b9157612b90612bcd565b5b600182019050919050565b6000612ba782612aa4565b9150612bb283612aa4565b925082612bc257612bc1612bfc565b5b828206905092915050565b7f4e487b7100000000000000000000000000000000000000000000000000000000600052601160045260246000fd5b7f4e487b7100000000000000000000000000000000000000000000000000000000600052601260045260246000fd5b7f4e487b7100000000000000000000000000000000000000000000000000000000600052602260045260246000fd5b7f4e487b7100000000000000000000000000000000000000000000000000000000600052603260045260246000fd5b7f4e487b7100000000000000000000000000000000000000000000000000000000600052604160045260246000fd5b600080fd5b600080fd5b600080fd5b600080fd5b6000601f19601f8301169050919050565b7f4552433732313a207472616e7366657220746f206e6f6e20455243373231526560008201527f63656976657220696d706c656d656e7465720000000000000000000000000000602082015250565b7f4552433732313a207472616e736665722066726f6d20696e636f72726563742060008201527f6f776e6572000000000000000000000000000000000000000000000000000000602082015250565b7f4552433732313a20746f6b656e20616c7265616479206d696e74656400000000600082015250565b7f4552433732313a207472616e7366657220746f20746865207a65726f2061646460008201527f7265737300000000000000000000000000000000000000000000000000000000602082015250565b7f4552433732313a20617070726f766520746f2063616c6c657200000000000000600082015250565b7f4552433732313a206f70657261746f7220717565727920666f72206e6f6e657860008201527f697374656e7420746f6b656e0000000000000000000000000000000000000000602082015250565b7f4552433732313a20617070726f76652063616c6c6572206973206e6f74206f7760008201527f6e6572206e6f7220617070726f76656420666f7220616c6c0000000000000000602082015250565b7f4552433732313a2062616c616e636520717565727920666f7220746865207a6560008201527f726f206164647265737300000000000000000000000000000000000000000000602082015250565b7f4552433732313a206f776e657220717565727920666f72206e6f6e657869737460008201527f656e7420746f6b656e0000000000000000000000000000000000000000000000602082015250565b7f45524337323155524953746f726167653a2055524920736574206f66206e6f6e60008201527f6578697374656e7420746f6b656e000000000000000000000000000000000000602082015250565b7f4552433732313a206d696e7420746f20746865207a65726f2061646472657373600082015250565b7f45524337323155524953746f726167653a2055524920717565727920666f722060008201527f6e6f6e6578697374656e7420746f6b656e000000000000000000000000000000602082015250565b7f4552433732313a20617070726f76656420717565727920666f72206e6f6e657860008201527f697374656e7420746f6b656e0000000000000000000000000000000000000000602082015250565b7f4552433732314d657461646174613a2055524920717565727920666f72206e6f60008201527f6e6578697374656e7420746f6b656e0000000000000000000000000000000000602082015250565b7f4552433732313a20617070726f76616c20746f2063757272656e74206f776e6560008201527f7200000000000000000000000000000000000000000000000000000000000000602082015250565b7f546865726520697320616c7265616479206120617070206f662074686520736160008201527f6d6520746f6b656e555249000000000000000000000000000000000000000000602082015250565b7f4552433732313a207472616e736665722063616c6c6572206973206e6f74206f60008201527f776e6572206e6f7220617070726f766564000000000000000000000000000000602082015250565b7f546865726520697320616c7265616479206120617070206f662074686520736160008201527f6d65206e616d6500000000000000000000000000000000000000000000000000602082015250565b61320281612a3a565b811461320d57600080fd5b50565b61321981612a4c565b811461322457600080fd5b50565b61323081612a58565b811461323b57600080fd5b50565b61324781612aa4565b811461325257600080fd5b5056fea2646970667358221220849f1a0fe14a06250e9a5d32fa4b707b73a689d1f3f8bd58a5bb11c056edefdd64736f6c63430008050033",
  "immutableReferences": {},
  "source": "// contracts/AppStore.sol\n// SPDX-License-Identifier: MIT\npragma solidity ^0.8.4;\n\nimport \"./AppNFT.sol\";\n\ncontract AppStore {\n\n    AppNFT public appNTF;\n\n    /**\n     * App Property\n     * @price: The price of app / wei\n     * @seller: Who sell this app\n     * @buyers: Who buy this app\n     */\n    struct AppProperty {\n        uint price;\n        address payable seller;\n        address[] buyers;\n        mapping(address => bool) isBuyersMap;\n    }\n\n    /**\n     * AppNTF `TokenId(uint256)` => `AppProperty`\n     */\n    mapping(uint256 => AppProperty) public appMap;\n\n    /**\n     * devAccount (address) => soldTokenIds (uint256[])\n     */\n    mapping (address => uint256[]) sellerMap;\n\n    /**\n     * sellerAccount (address) => boughtTokenIds (uint256[])\n     */\n    mapping (address => uint256[]) buyerMap;\n\n    // events\n    event OnSell(address seller, uint256 tokenId, string name, uint price);\n    event OnBuy(address buyer, address seller, uint256 tokenId, uint price);\n\n    constructor() {\n        appNTF = new AppNFT();\n    }\n\n    /**\n     * Get the NFT item count\n     */\n    function totalCount() public view returns (uint256) {\n        return appNTF.currentCount();\n    }\n\n    /**\n     * Get the NFT tokenURI\n     */\n    function getTokenURI(uint256 tokenId) public view returns (string memory) {\n        return appNTF.tokenURI(tokenId);\n    }\n\n    /**\n     * Get the App Name\n     */\n    function getAppName(uint256 tokenId) public view returns (string memory) {\n        return appNTF.getName(tokenId);\n    }\n\n    /**\n     * Get the App Seller\n     */\n    function getAppSeller(uint256 tokenId) public view returns (address) {\n        return appMap[tokenId].seller;\n    }\n\n    /**\n     * Get the App Price\n     */\n    function getAppPrice(uint256 tokenId) public view returns (uint) {\n        return appMap[tokenId].price;\n    }\n\n    /**\n     * Get the App Buyers\n     */\n    function getAppBuyers(uint256 tokenId) public view returns (address[] memory buyers) {\n        return appMap[tokenId].buyers;\n    }\n\n    /**\n     * The method developer use to publish app\n     */\n    function sell(string memory name, string memory tokenURI, uint price) public returns (uint256)  {\n        // create NTF token\n        uint ntfToken = appNTF.add(msg.sender, tokenURI, name);\n\n        // record app property: the price\n        appMap[ntfToken].seller = payable(msg.sender);\n        appMap[ntfToken].price = price;\n\n        sellerMap[msg.sender].push(ntfToken);\n\n        emit OnSell(msg.sender, ntfToken, name, price);\n        \n        return ntfToken;\n    }\n\n    /**\n     * The method consumers use to buy app\n     */\n    function buy(uint256 tokenId) public payable returns (bool)  {\n        require(appMap[tokenId].seller != address(0), \"Error: There is no app pointed to by this tokenId\");\n        require(appMap[tokenId].price == msg.value, \"Error: The purchase price for this app is incorrect\");\n        require(appMap[tokenId].isBuyersMap[msg.sender] != true, \"Error: This user has already purchased\");\n\n        // transform eth to seller\n        appMap[tokenId].seller.transfer(msg.value);\n\n        // add buyers to buyApp.buyers \n        appMap[tokenId].isBuyersMap[msg.sender] = true;\n        appMap[tokenId].buyers.push(msg.sender);\n\n        // add tokenId to buyerMap\n        buyerMap[msg.sender].push(tokenId);\n\n        emit OnBuy(msg.sender, appMap[tokenId].seller, tokenId, msg.value);\n\n        return true;\n    }\n\n    /**\n     * The method developer use to verify consumer permissions\n     *\n     */\n    function verify(uint256 tokenId, address buyer) public view returns (bool) {\n        require(appMap[tokenId].seller != address(0), \"Error: There is no app pointed to by this tokenId\");\n\n        bool verified = appMap[tokenId].isBuyersMap[buyer] == true;\n\n        return verified;\n    }\n\n    function getTokenIdsBySeller(address seller) public view returns(uint256[] memory tokenIds){\n        return sellerMap[seller];\n    }\n\n    function getTokenIdsByBuyer(address buyer) public view returns(uint256[] memory tokenIds){\n        return buyerMap[buyer];\n    }\n\n    // Fallback: reverts if Ether is sent to this smart-contract by mistake\n    fallback () external {\n        revert();\n    }\n}",
  "sourcePath": "/Users/guzhihao/Documents/code/ms/DAppStore/contracts/AppStore.sol",
  "compiler": {
    "name": "solc",
    "version": "0.8.5+commit.a4f2e591.Emscripten.clang"
  },
  "schemaVersion": "3.4.7",
  "updatedAt": "2022-06-29T08:35:02.597Z",
  "networkType": "ethereum",
  "devdoc": {
    "kind": "dev",
    "methods": {},
    "version": 1
  },
  "userdoc": {
    "kind": "user",
    "methods": {
      "appMap(uint256)": {
        "notice": "AppNTF `TokenId(uint256)` => `AppProperty`"
      },
      "buy(uint256)": {
        "notice": "The method consumers use to buy app"
      },
      "getAppBuyers(uint256)": {
        "notice": "Get the App Buyers"
      },
      "getAppName(uint256)": {
        "notice": "Get the App Name"
      },
      "getAppPrice(uint256)": {
        "notice": "Get the App Price"
      },
      "getAppSeller(uint256)": {
        "notice": "Get the App Seller"
      },
      "getTokenURI(uint256)": {
        "notice": "Get the NFT tokenURI"
      },
      "sell(string,string,uint256)": {
        "notice": "The method developer use to publish app"
      },
      "totalCount()": {
        "notice": "Get the NFT item count"
      },
      "verify(uint256,address)": {
        "notice": "The method developer use to verify consumer permissions"
      }
    },
    "version": 1
  }
}